{
  "address": "0x65bB1D20aa4c44cB1d10002013029fe7daBffCE4",
  "abi": [
    {
      "inputs": [
        {
          "internalType": "uint256",
          "name": "subscriptionId",
          "type": "uint256"
        }
      ],
      "stateMutability": "nonpayable",
      "type": "constructor"
    },
    {
      "inputs": [],
      "name": "AlreadyAsked",
      "type": "error"
    },
    {
      "inputs": [],
      "name": "AskInProgress",
      "type": "error"
    },
    {
      "inputs": [
        {
          "internalType": "address",
          "name": "have",
          "type": "address"
        },
        {
          "internalType": "address",
          "name": "want",
          "type": "address"
        }
      ],
      "name": "OnlyCoordinatorCanFulfill",
      "type": "error"
    },
    {
      "inputs": [
        {
          "internalType": "address",
          "name": "have",
          "type": "address"
        },
        {
          "internalType": "address",
          "name": "owner",
          "type": "address"
        },
        {
          "internalType": "address",
          "name": "coordinator",
          "type": "address"
        }
      ],
      "name": "OnlyOwnerOrCoordinator",
      "type": "error"
    },
    {
      "inputs": [],
      "name": "SortingHatNotAsked",
      "type": "error"
    },
    {
      "inputs": [],
      "name": "ZeroAddress",
      "type": "error"
    },
    {
      "anonymous": false,
      "inputs": [
        {
          "indexed": false,
          "internalType": "address",
          "name": "vrfCoordinator",
          "type": "address"
        }
      ],
      "name": "CoordinatorSet",
      "type": "event"
    },
    {
      "anonymous": false,
      "inputs": [
        {
          "indexed": true,
          "internalType": "address",
          "name": "from",
          "type": "address"
        },
        {
          "indexed": true,
          "internalType": "address",
          "name": "to",
          "type": "address"
        }
      ],
      "name": "OwnershipTransferRequested",
      "type": "event"
    },
    {
      "anonymous": false,
      "inputs": [
        {
          "indexed": true,
          "internalType": "address",
          "name": "from",
          "type": "address"
        },
        {
          "indexed": true,
          "internalType": "address",
          "name": "to",
          "type": "address"
        }
      ],
      "name": "OwnershipTransferred",
      "type": "event"
    },
    {
      "anonymous": false,
      "inputs": [
        {
          "indexed": true,
          "internalType": "uint256",
          "name": "requestId",
          "type": "uint256"
        },
        {
          "indexed": true,
          "internalType": "uint256",
          "name": "result",
          "type": "uint256"
        }
      ],
      "name": "SortingHatAnswered",
      "type": "event"
    },
    {
      "anonymous": false,
      "inputs": [
        {
          "indexed": true,
          "internalType": "uint256",
          "name": "requestId",
          "type": "uint256"
        },
        {
          "indexed": true,
          "internalType": "address",
          "name": "student",
          "type": "address"
        }
      ],
      "name": "SortingHatAsked",
      "type": "event"
    },
    {
      "inputs": [],
      "name": "acceptOwnership",
      "outputs": [],
      "stateMutability": "nonpayable",
      "type": "function"
    },
    {
      "inputs": [],
      "name": "askSortingHat",
      "outputs": [
        {
          "internalType": "uint256",
          "name": "requestId",
          "type": "uint256"
        }
      ],
      "stateMutability": "nonpayable",
      "type": "function"
    },
    {
      "inputs": [
        {
          "internalType": "address",
          "name": "player",
          "type": "address"
        }
      ],
      "name": "house",
      "outputs": [
        {
          "internalType": "string",
          "name": "",
          "type": "string"
        }
      ],
      "stateMutability": "view",
      "type": "function"
    },
    {
      "inputs": [],
      "name": "owner",
      "outputs": [
        {
          "internalType": "address",
          "name": "",
          "type": "address"
        }
      ],
      "stateMutability": "view",
      "type": "function"
    },
    {
      "inputs": [
        {
          "internalType": "uint256",
          "name": "requestId",
          "type": "uint256"
        },
        {
          "internalType": "uint256[]",
          "name": "randomWords",
          "type": "uint256[]"
        }
      ],
      "name": "rawFulfillRandomWords",
      "outputs": [],
      "stateMutability": "nonpayable",
      "type": "function"
    },
    {
      "inputs": [],
      "name": "s_vrfCoordinator",
      "outputs": [
        {
          "internalType": "contract IVRFCoordinatorV2Plus",
          "name": "",
          "type": "address"
        }
      ],
      "stateMutability": "view",
      "type": "function"
    },
    {
      "inputs": [
        {
          "internalType": "address",
          "name": "_vrfCoordinator",
          "type": "address"
        }
      ],
      "name": "setCoordinator",
      "outputs": [],
      "stateMutability": "nonpayable",
      "type": "function"
    },
    {
      "inputs": [
        {
          "internalType": "address",
          "name": "to",
          "type": "address"
        }
      ],
      "name": "transferOwnership",
      "outputs": [],
      "stateMutability": "nonpayable",
      "type": "function"
    }
  ],
  "transactionHash": "0xad583e9ab8500f793878b6d2878c0420f269d334392992d17b75513c7dc6c4bd",
  "args": [
    "67990703133811309730863654038673684847428984203620703945053873905620387514147"
  ],
  "numDeployments": 1,
  "solcInputHash": "896c62f773fb1f16fce67b2688e96be1",
  "bytecode": "0x6080604052600480546001600160a01b031916739ddfaca8183c41ad55329bdeed9f6a8d53168b1b1790557f787d74caea10b2b357790d5b5247c2f63d1d91572a9846f780606e4d953677ae600555600680546601000300009c406001600160501b031990911617905534801561007557600080fd5b50604051610c90380380610c9083398101604081905261009491610221565b6004546001600160a01b031633806000816100f65760405162461bcd60e51b815260206004820152601860248201527f43616e6e6f7420736574206f776e657220746f207a65726f000000000000000060448201526064015b60405180910390fd5b600080546001600160a01b0319166001600160a01b03848116919091179091558116156101265761012681610178565b5050506001600160a01b0381166101505760405163d92e233d60e01b815260040160405180910390fd5b600280546001600160a01b0319166001600160a01b039290921691909117905560035561023a565b336001600160a01b038216036101d05760405162461bcd60e51b815260206004820152601760248201527f43616e6e6f74207472616e7366657220746f2073656c6600000000000000000060448201526064016100ed565b600180546001600160a01b0319166001600160a01b0383811691821790925560008054604051929316917fed8889f560326eb138920d842192f0eb3dd22b4f139c87a2c57538e05bae12789190a350565b60006020828403121561023357600080fd5b5051919050565b610a47806102496000396000f3fe608060405234801561001057600080fd5b50600436106100885760003560e01c80639eccacf61161005b5780639eccacf6146100e7578063b1cad5e3146100fa578063dc9425141461011a578063f2fde38b1461013057600080fd5b80631fe543e31461008d57806379ba5097146100a25780638da5cb5b146100aa5780638ea98117146100d4575b600080fd5b6100a061009b366004610817565b610143565b005b6100a0610198565b6000546001600160a01b03165b6040516001600160a01b0390911681526020015b60405180910390f35b6100a06100e2366004610896565b610242565b6002546100b7906001600160a01b031681565b61010d610108366004610896565b610334565b6040516100cb919061090c565b6101226103d0565b6040519081526020016100cb565b6100a061013e366004610896565b610548565b6002546001600160a01b031633146101885760025460405163073e64fd60e21b81523360048201526001600160a01b0390911660248201526044015b60405180910390fd5b61019383838361055c565b505050565b6001546001600160a01b031633146101eb5760405162461bcd60e51b815260206004820152601660248201527526bab9ba10313290383937b837b9b2b21037bbb732b960511b604482015260640161017f565b60008054336001600160a01b0319808316821784556001805490911690556040516001600160a01b0390921692909183917f8be0079c531659141344cd1fd0a4f28419497f9722a3daafe3b4186f6b6457e091a350565b6000546001600160a01b0316331480159061026857506002546001600160a01b03163314155b156102b957336102806000546001600160a01b031690565b60025460405163061db9c160e01b81526001600160a01b039384166004820152918316602483015291909116604482015260640161017f565b6001600160a01b0381166102e05760405163d92e233d60e01b815260040160405180910390fd5b600280546001600160a01b0319166001600160a01b0383169081179091556040519081527fd1a6a14209a385a964d036e404cb5cfb71f4000cdb03c9366292430787261be69060200160405180910390a150565b6001600160a01b0381166000908152600860205260408120546060910361036e576040516358ab354160e11b815260040160405180910390fd5b6001600160a01b038216600090815260086020526040902054602919016103a85760405163137b30b960e11b815260040160405180910390fd5b6001600160a01b0382166000908152600860205260409020546103ca906105e8565b92915050565b336000818152600860205260408120549091901561040157604051632ee8c30f60e21b815260040160405180910390fd5b6002546040805160c081018252600554815260035460208083019190915260065461ffff6401000000008204168385015263ffffffff808216606085015266010000000000009091041660808301528251908101909252600082526001600160a01b0390921691639b1c385e9160a082019061047c906106a8565b8152506040518263ffffffff1660e01b815260040161049b919061091f565b6020604051808303816000875af11580156104ba573d6000803e3d6000fd5b505050506040513d601f19601f820116820180604052508101906104de9190610984565b600081815260076020908152604080832080546001600160a01b0319166001600160a01b0387169081179091558084526008909252808320602a9055519294509184917f11243425ea60576eb8e2b5a9784bcde3a4bd14444dfc1c3f18a574291a68550891a35090565b610550610719565b6105598161076e565b50565b60006004838360008181106105735761057361099d565b9050602002013561058491906109b3565b61058f9060016109eb565b6000858152600760209081526040808320546001600160a01b03168352600890915280822083905551919250829186917f59682f4727bad7e82ab557e9726ebc9579bc564e23e657bfaf454ab49f66c79391a350505050565b6040805160c081018252600a608082018181526923b93cb33334b73237b960b11b60a084015282528251808401845290815269243ab3333632b83ab33360b11b6020828101919091528083019190915282518084018452600980825268526176656e636c617760b81b8284015283850191909152835180850190945283526829b63cba3432b934b760b91b908301526060818101929092528061068c6001856109fe565b6004811061069c5761069c61099d565b60200201519392505050565b60607f92fd13387c7fe7befbc38d303d6468778fb9731bc4583f17d92989c6fcfdeaaa826040516024016106e191511515815260200190565b60408051601f198184030181529190526020810180516001600160e01b03166001600160e01b03199093169290921790915292915050565b6000546001600160a01b0316331461076c5760405162461bcd60e51b815260206004820152601660248201527527b7363c9031b0b63630b1363290313c9037bbb732b960511b604482015260640161017f565b565b336001600160a01b038216036107c65760405162461bcd60e51b815260206004820152601760248201527f43616e6e6f74207472616e7366657220746f2073656c66000000000000000000604482015260640161017f565b600180546001600160a01b0319166001600160a01b0383811691821790925560008054604051929316917fed8889f560326eb138920d842192f0eb3dd22b4f139c87a2c57538e05bae12789190a350565b60008060006040848603121561082c57600080fd5b83359250602084013567ffffffffffffffff8082111561084b57600080fd5b818601915086601f83011261085f57600080fd5b81358181111561086e57600080fd5b8760208260051b850101111561088357600080fd5b6020830194508093505050509250925092565b6000602082840312156108a857600080fd5b81356001600160a01b03811681146108bf57600080fd5b9392505050565b6000815180845260005b818110156108ec576020818501810151868301820152016108d0565b506000602082860101526020601f19601f83011685010191505092915050565b6020815260006108bf60208301846108c6565b60208152815160208201526020820151604082015261ffff60408301511660608201526000606083015163ffffffff80821660808501528060808601511660a0850152505060a083015160c08084015261097c60e08401826108c6565b949350505050565b60006020828403121561099657600080fd5b5051919050565b634e487b7160e01b600052603260045260246000fd5b6000826109d057634e487b7160e01b600052601260045260246000fd5b500690565b634e487b7160e01b600052601160045260246000fd5b808201808211156103ca576103ca6109d5565b818103818111156103ca576103ca6109d556fea26469706673582212203ebaa04cec5bc03ad86fbfbec9d08d168514dbcf73c615c469fd610f2345768664736f6c63430008130033",
  "devdoc": {
    "kind": "dev",
    "methods": {},
    "version": 1
  },
  "userdoc": {
    "kind": "user",
    "methods": {
      "acceptOwnership()": {
        "notice": "Allows an ownership transfer to be completed by the recipient."
      },
      "owner()": {
        "notice": "Get the current owner"
      },
      "setCoordinator(address)": {
        "notice": "Sets the VRF Coordinator addressThis method should only be callable by the coordinator or contract owner"
      },
      "transferOwnership(address)": {
        "notice": "Allows an owner to begin transferring ownership to a new address."
      }
    },
    "version": 1
  },
  "storageLayout": {
    "storage": [
      {
        "astId": 29,
        "contract": "contracts/HogwartsHouses.sol:HogwartsHouses",
        "label": "s_owner",
        "offset": 0,
        "slot": "0",
        "type": "t_address"
      },
      {
        "astId": 31,
        "contract": "contracts/HogwartsHouses.sol:HogwartsHouses",
        "label": "s_pendingOwner",
        "offset": 0,
        "slot": "1",
        "type": "t_address"
      },
      {
        "astId": 231,
        "contract": "contracts/HogwartsHouses.sol:HogwartsHouses",
        "label": "s_vrfCoordinator",
        "offset": 0,
        "slot": "2",
        "type": "t_contract(IVRFCoordinatorV2Plus)380"
      },
      {
        "astId": 538,
        "contract": "contracts/HogwartsHouses.sol:HogwartsHouses",
        "label": "s_subscriptionId",
        "offset": 0,
        "slot": "3",
        "type": "t_uint256"
      },
      {
        "astId": 541,
        "contract": "contracts/HogwartsHouses.sol:HogwartsHouses",
        "label": "vrfCoordinator",
        "offset": 0,
        "slot": "4",
        "type": "t_address"
      },
      {
        "astId": 544,
        "contract": "contracts/HogwartsHouses.sol:HogwartsHouses",
        "label": "s_keyHash",
        "offset": 0,
        "slot": "5",
        "type": "t_bytes32"
      },
      {
        "astId": 547,
        "contract": "contracts/HogwartsHouses.sol:HogwartsHouses",
        "label": "callbackGasLimit",
        "offset": 0,
        "slot": "6",
        "type": "t_uint32"
      },
      {
        "astId": 550,
        "contract": "contracts/HogwartsHouses.sol:HogwartsHouses",
        "label": "requestConfirmations",
        "offset": 4,
        "slot": "6",
        "type": "t_uint16"
      },
      {
        "astId": 553,
        "contract": "contracts/HogwartsHouses.sol:HogwartsHouses",
        "label": "numWords",
        "offset": 6,
        "slot": "6",
        "type": "t_uint32"
      },
      {
        "astId": 557,
        "contract": "contracts/HogwartsHouses.sol:HogwartsHouses",
        "label": "s_students",
        "offset": 0,
        "slot": "7",
        "type": "t_mapping(t_uint256,t_address)"
      },
      {
        "astId": 561,
        "contract": "contracts/HogwartsHouses.sol:HogwartsHouses",
        "label": "s_results",
        "offset": 0,
        "slot": "8",
        "type": "t_mapping(t_address,t_uint256)"
      }
    ],
    "types": {
      "t_address": {
        "encoding": "inplace",
        "label": "address",
        "numberOfBytes": "20"
      },
      "t_bytes32": {
        "encoding": "inplace",
        "label": "bytes32",
        "numberOfBytes": "32"
      },
      "t_contract(IVRFCoordinatorV2Plus)380": {
        "encoding": "inplace",
        "label": "contract IVRFCoordinatorV2Plus",
        "numberOfBytes": "20"
      },
      "t_mapping(t_address,t_uint256)": {
        "encoding": "mapping",
        "key": "t_address",
        "label": "mapping(address => uint256)",
        "numberOfBytes": "32",
        "value": "t_uint256"
      },
      "t_mapping(t_uint256,t_address)": {
        "encoding": "mapping",
        "key": "t_uint256",
        "label": "mapping(uint256 => address)",
        "numberOfBytes": "32",
        "value": "t_address"
      },
      "t_uint16": {
        "encoding": "inplace",
        "label": "uint16",
        "numberOfBytes": "2"
      },
      "t_uint256": {
        "encoding": "inplace",
        "label": "uint256",
        "numberOfBytes": "32"
      },
      "t_uint32": {
        "encoding": "inplace",
        "label": "uint32",
        "numberOfBytes": "4"
      }
    }
  }
}